:020000040800F2
:1000000048050020C5000008B51900084D1100087A
:1000100000000000000000000000000000000000E0
:10002000000000000000000000000000F9190008B6
:100030000000000000000000B7190008FB190008CC
:10004000D700000800000000D7000008D700000813
:10005000D7000008D7000008D7000008D700000824
:1000600000000000D7000008D7000008D7000008F3
:10007000D7000008D7000008D700000800000000E3
:10008000D70000080000000000000000D7000008B2
:1000900000000000D7000008D70000085111000838
:1000A00000000000D700000800000000D700000892
:1000B0000348854600F0A0F800480047991C000856
:1000C000480500200448804704480047FEE7FEE753
:1000D000FEE7FEE7FEE7FEE7691A0008B100000848
:1000E00030B50B46014600202022012409E00D46D0
:1000F000D5409D4205D31D469540491B2546954058
:1001000040191546521E002DF1DC30BDF0B51FB46C
:100110000646002082B005464024019100901BE075
:10012000019922460F46304600F020F8049A059BBC
:10013000801A994110D310461946224600F04BF818
:10014000361A8F410197224601200021009F00F0BE
:1001500042F838184D4100902046641E0028DFDC2C
:10016000019B00982946324607B0F0BD10B5202A01
:1001700004DB0846203AD040002110BD0B46D34096
:10018000D0402024A21A91400843194610BD0346CE
:100190000B439B0703D009E008C9121F08C0042ABB
:1001A000FAD203E00B780370401C491C521EF9D2AE
:1001B0007047D2B201E00270401C491EFBD270476A
:1001C0000022F6E710B513460A4604461946FFF723
:1001D000F0FF204610BD10B5202A04DB0146203A6E
:1001E0009140002010BD914020239C1A0346E3401B
:1001F0001943904010BD0000064C0125064E05E055
:10020000E36807CC2B430C3C98471034B442F7D337
:10021000FFF752FF1C1E00083C1E000810B51021FD
:10022000064A0140917000090549C207086889889B
:1002300000D0012200F009FA10BD000018000020D3
:100240001C00002006490020C861064801690422FC
:1002500011430161016940221143016170470000AF
:10026000C000002000200240064A0021D16106495A
:100270000A6902231A430A6148610869402210434F
:1002800008617047C00000200020024010B5054BF7
:100290000022DA61044A13690124234313610180B7
:1002A00010BD0000C00000200020024010B50B4A25
:1002B0000020D168CB060A4904D5C8690223184337
:1002C000C8611020D3685B0705D5CB69012423439F
:1002D000CB6104210843D06010BD00000020024023
:1002E000C000002070B5054600F0B6F90646104C77
:1002F0000AE0681C08D0002D04D000F0ADF9801B86
:10030000A84201D9032070BDE068C007F1D1E068C0
:10031000800601D52020E060E068C00602D4E068D5
:10032000400703D5FFF7C2FF012070BD002070BD5C
:100330000020024070B50024014620314A78022A8C
:1003400003D004218163012416E0026813680E259E
:10035000AB431360026813685B085B001360012203
:10036000056C1346AB40C56B6B604A7000220A7087
:10037000416B002900D08847204670BD70B5044607
:1003800000F06AF90546601C02D004480078241881
:1003900000F062F9401BA042FAD370BD04000020B7
:1003A000F8B5054623480F46017E012601290BD0EA
:1003B000012101762868204C012807D02046FFF74C
:1003C00091FF002813D030E00220F8BD2046FFF74F
:1003D00089FF002829D1FFF735FF2046FFF782FF6C
:1003E0000646164801690422914301611DE0002080
:1003F000C04338606C6812E02046FFF735FF0E48B6
:10040000FFF770FF06460D48026902218A43026128
:10041000002E01D03C6008E0012080022418A8686A
:10042000810268680818A042E6D8024800210176D7
:100430003046F8BDC000002050C30000002002403C
:1004400003480169802211430161002070470000C8
:1004500000200240F0B51FB407461A480024017E70
:1004600015461E46012907D0012101761648FFF7DF
:1004700039FF002803D020E0022005B0F0BD012F95
:1004800002D0022F00D00427220128463146FFF770
:100490006DFE81B2019862001018FFF7F7FE0A485E
:1004A000FFF720FF09490A69520852000A61002833
:1004B00003D1641CE4B2BC42E6D3024900220A76AE
:1004C000DBE70000C000002050C300000020024015
:1004D000064900200A69120607D5054A4A60054AFE
:1004E0004A600969090600D50120704700200240D2
:1004F00023016745AB89EFCDF8B500238DE00124DA
:100500009C40A44622407DD04C68022C01D0122C85
:100510000CD1DC08A40027183C6A5D07ED0E0F26FD
:10052000AE40B4430E69AE4026433E6205685E00AD
:100530000324B4400F79A543BF07BF0FB7402F4333
:1005400007604D68012D05D0022D03D0112D01D07B
:10055000122D0ED18568CF68A543B7402F43876021
:1005600047686546AF430D79ED06ED0F9D403D436D
:100570004560C568A5438C68B4402C43C4604C6892
:10058000E40049D5284CA56901263543A561A46935
:100590009D0834400094254CAD002F19BC689D0780
:1005A0002E0F0F25B540AC430925ED06A84201D119
:1005B00000250FE01E4DA84201D101250AE01D4D86
:1005C000A84201D1022505E01B4DA84201D1032517
:1005D00000E00525B5402543BD60184C25684E68F0
:1005E0009543F60300D51543256065684E6895432D
:1005F000B60300D515436560A5684E689543F602BD
:1006000002D500E008E01543A560E5684E68954313
:10061000B60200D51543E5605B1C0A681446DC4051
:1006200000D06CE7F8BD000000100240000001405F
:100630000004004800080048000C00480004014085
:100640000069084000D001207047002A01D0816174
:100650007047816270470000014880687047000061
:100660000400002070B5024640325378202B1CD184
:100670001378012B19D001231370242454700468BB
:1006800025689D432560046825681E03B5432560E1
:10069000046825680D4325600068016819430160FE
:1006A000202050700020107070BD022070BD70B509
:1006B000024640325378202B1BD11378012B18D0DF
:1006C000012414702423537003681D68A5431D6022
:1006D00005682B680F263602B343090219432960C7
:1006E00000680168214301602020507000201070D4
:1006F00070BD022070BD704770B50D4611490446AB
:1007000000680968884215D12021412001552846FA
:1007100001F040FA002D0ED00B4D6A880B4920469F
:1007200000F076F90120287021680820C86105488A
:1007300000F042F870BD054932223239204600F0FF
:100740003BF9F1E7740000201400002012010020A2
:1007500070B503689A691968D40507D50C0605D5E4
:10076000446C01252C4344642C02DC61530508D5FC
:100770000B0606D5436C082423434364E301046855
:10078000E361920508D5090606D5416C02221143A2
:10079000416411020268D161416C0B22114202D006
:1007A000416C00F0C3FD70BD026891691268436B33
:1007B000002B00D01847704710B5014640314A78E9
:1007C000202A01D0022010BD28224A70034941632B
:1007D000042100F013FD002010BD00005517000893
:1007E00010B5074C00682168884208D12046FFF701
:1007F000E3FF206841680122D2031143416010BD2C
:100800007400002070B5040006D025464035687895
:100810000026002802D005E0012070BD2E70204681
:1008200000F06CF8242068702068016849084900CD
:1008300001600F216068090688432168086121680A
:100840008A680120C00382438A60E1680129A168A7
:1008500008D021229202114322689160E1680229A6
:1008600002D005E00143F7E701212268C902516087
:1008700021684A680F4B1A434A602168CA6882435C
:10088000CA60616920690843A169090208432168B7
:10089000C860216AE069084321680860206801682F
:1008A0000122114301606664202068702663AE70E7
:1008B000002070BD0080000210B50B4A016812686C
:1008C00091420FD1094C2178012906D0008D3221A7
:1008D000081A81B2064801F05FF900202070024832
:1008E000FFF76AFF10BD0000740000201400002014
:1008F000E0000020704770477047704710B586B021
:10090000044614216846FFF75BFC174920688842BB
:1009100028D1164C6169012040040143616161697D
:100920000140032005914002009012200190012017
:100930000290032003900420049009206946C00619
:10094000FFF7DAFDE169012040050143E161E1695A
:100950000022014005911146172000F0DFF8172012
:1009600000F0D0F806B010BD005400400010024066
:1009700010B5064900680968884206D1322104484A
:1009800001F00AF90148FFF717FF10BD74000020BD
:10099000E000002010B5064900680968884205D1CA
:1009A0000449002008700248FFF706FF10BD000050
:1009B0007400002014000020F8B5034640335C7832
:1009C000202C1ED11C78012C1BD001241C70222449
:1009D0005C7020249C700024446405686E680127C4
:1009E000FF03BE436E6041624285418D0185064929
:1009F000C162064941631C70062100F0FFFB002024
:100A0000F8BD0220F8BD00000000FFFF55170008E8
:100A1000F8B5034640335C78202C1ED11C78012C9D
:100A20001BD001241C7021245C7020249C700024A5
:100A3000446405686E680127FF03BE436E6041622F
:100A40004285418D01850649C162064941631C709A
:100A5000052100F0D3FB0020F8BD0220F8BD000006
:100A60000000FFFF551700080248816802788918C6
:100A7000816070470400002010B50648016810220C
:100A800011430160002000F007F800F027F8002073
:100A900010BD00000020024070B504460D4D7D20C1
:100AA0002978C000FFF71CFB01460B480068FFF7E0
:100AB00017FB00F033FB002809D1042C07D20022D9
:100AC0002146401E00F02AF800206C6070BD012015
:100AD00070BD0000040000201000002008B5084888
:100AE0008169012211438161816911400091C269CC
:100AF00001040A43C261C0690840009008BD0000BB
:100B000000100240002805DBC106C90E0120884004
:100B1000014908607047000000E100E010B500F0F6
:100B2000E9FF10BDF8B505460068354CC00352D545
:100B3000E0690026C00007D4E16920040143E161B7
:100B4000E1690140012600912E480168C90510D4D1
:100B50000168821511430160FFF77EFD074604E03E
:100B6000FFF77AFDC01B642824D826480068C0051A
:100B7000F6D5206A03273F02384020D06968394003
:100B800081421CD0206A226AB843012109040A4329
:100B90002262226A8A4322622062C0070FD0FFF7D6
:100BA0005BFD009008E0FFF757FD0099411A1648D9
:100BB000814201D90320F8BD206A8007F3D5206A5D
:100BC0006968B84308432062002E04D0E16901201F
:100BD00000078143E1612878C00705D0206BA96830
:100BE00080088000084320632878800605D5206BA4
:100BF00010218843E968084320630020F8BD000005
:100C0000001002400070004088130000F8B50F4645
:100C1000060059D03A4D2868C007C00FB84209D223
:100C2000286840084000384328602868C007C00F83
:100C3000B84249D13068334C81070CD5400704D500
:100C4000606807210902084360606068F0218843FA
:100C5000B168084360603078C00726D0706801280A
:100C60000ED0216802280ED0890700292CDA61688D
:100C70008908890001436160FFF7EEFC00900DE0F8
:100C800021688903F1E78901EFE7FFF7E5FC0099A7
:100C9000411A1D48814201D90320F8BD60680C212A
:100CA0000840716889008842EFD12868C007C00FEA
:100CB000B8420BD9286840084000384328602868AB
:100CC000C007C00FB84201D00120F8BD30784007FE
:100CD00006D56068072109028843F168084360600F
:100CE00000F018F86168094A0906090F515CC8400C
:100CF000074908600020FFF7CFFE0020F8BD000084
:100D00000020024000100240881300000C1E000862
:100D10001000002010B514A30FCB88B06C460FC490
:100D200015A30FCB0FC4184A51680C200B46034083
:100D30001648042B16D0082B14D18B021B0F6C46BF
:100D4000E45CD26A04AB1207120F9A5CC90305D5A2
:100D500000231946FFF7DAF9214601E020460C4945
:100D600000F0B0FE08B010BD020304050607080934
:100D70000A0B0C0D0E0F10100102030405060708E4
:100D8000090A0B0C0D0E0F100010024000127A0021
:100D900000093D00FEB5040070D02078DC4DC0078E
:100DA0004AD068680007800F012807D068680007EC
:100DB000800F022809D16868C00306D5286880031F
:100DC0003AD560680028E7D036E06168012914D080
:100DD00001208004002901D0052914D02A680121AE
:100DE00009048A432A6029688143296060680028D1
:100DF00016D0FFF731FC06460EE0286801210904F1
:100E000008432860F2E7296801432960F5E7FFF706
:100E100023FC801B64286ED828688003F7D50BE07C
:100E2000FFF71AFC064604E0FFF716FC801B642857
:100E3000F1D828688003F7D420780126800700289D
:100E40003CDA68680007800F07D068680007800FE9
:100E5000022809D16868C00306D42868800716D51F
:100E6000E06801280AD112E0E0680028286816D05E
:100E700030432860FFF7F0FB074605E043E1FFF74A
:100E8000EBFBC01B0228C6D828688007F7D5286866
:100E9000F82188432169C900084328600EE0400812
:100EA00040002860FFF7D8FB074604E0FFF7D4FBBB
:100EB000C01B0228AFD828688007F7D42078000725
:100EC00022D5E0690028686A0ED030436862FFF7D7
:100ED000C3FB074604E0FFF7BFFBC01B02289AD8FC
:100EE000686A8007F7D50FE0400840006862FFF7A6
:100EF000B3FB074605E09DE0FFF7AEFBC01B0228F1
:100F000089D8686A8007F7D420780427400700282A
:100F100060DA00200190E869C00008D4E969B806E9
:100F20000143E961E969014001200091019079489C
:100F30000168C90511D40168821511430160FFF7EA
:100F40008BFB009005E0FFF787FB0099401A6428AF
:100F500070D870480068C005F5D5A06801280AD08F
:100F6000002801D0052810D0286A400840002862D7
:100F7000286AB84301E0286A30432862A068002844
:100F800012D0FFF769FB00900AE0286A3843286214
:100F9000F1E7FFF761FB0099411A5F48814249D8A8
:100FA000286A8007F5D50DE0FFF756FB009006E0B4
:100FB000FFF752FB0099411A574881423AD8286AF4
:100FC0008007F5D40198002804D0E96901200007C2
:100FD0008143E9612078C00635D5606901280CD0CD
:100FE000401D686B23D038436863686B400840003D
:100FF0006863FFF731FB064622E0686B384368639D
:10100000686B30436863FFF727FB064604E0FFF791
:1010100023FB801B02285BD8686B8007F7D5686BC1
:10102000F8218843A169C900084368630BE0B8430D
:101030006863F4E74CE0FFF70FFB801B022847D8FA
:10104000686B8007F7D4206A00285ED069680907BA
:10105000890F022942D0012636060228286805D0C9
:10106000B0432860FFF7F8FA044633E0B043286045
:10107000FFF7F2FA074604E0FFF7EEFAC01B02287A
:1010800026D828688001F7D4E86AE16A00090001DF
:101090000843E862616AA06A084369683D22120455
:1010A000914308436860286830432860FFF7D4FA0A
:1010B000044604E0FFF7D0FA001B022808D828688D
:1010C0008001F7D521E0FFF7C7FA001B022801D9FC
:1010D0000320FEBD28688001F5D416E00128F8D071
:1010E0006868E96A01221204636A02409A420AD1DE
:1010F0000907E26A090F914205D10F2189040840CE
:10110000A16A884201D00120FEBD0020FEBD000082
:10111000001002400070004088130000094910B51B
:10112000401E884201D9012010BD074C6061032197
:10113000081F00F0DFFC0020A061072020610020D4
:1011400010BD0000FFFFFF0000E000E0FEE7000030
:1011500010B50648006880694005400F034802D07A
:10116000FFF7F6FA10BDFFF71FFB10BD740000205B
:1011700010B5406A01684A680123DB031A434A60DC
:10118000826B00215163C26B5163014640314A7842
:10119000602A02D0FFF724FB10BD20224A70FFF71F
:1011A000AAFA10BDF0B503460022CE07403328242A
:1011B000B025002E05D05E7842222746B74300D0E6
:1011C000F2228E0705D544265B7832439C4300D03B
:1011D0002A434B0701D5B8231A4311238B4301D16E
:1011E00090231A4312238B4301D160210A430068E4
:1011F0000168914301600020F0BD000070B5164DFC
:101200001223446B002220268B43AC4202D0134DA4
:10121000AC420DD14C0700D5B82211248C4301D12A
:1012200090210A43002B11D1324340210A430DE0A3
:101230004C0700D5B822CC0701D0F22422438907FD
:1012400001D5F4210A43002B00D132430068016824
:1012500011430160002070BD2B160008ED16000838
:1012600001688A69D243920701D400228A62006829
:101270008169C943C90703D0816901221143816192
:101280007047F8B505460446403568782822824301
:101290000026FE212068002A06D06A78222A30D053
:1012A0000821C1612E70F8BD8269D203D20F00926D
:1012B0008269170C82680F409205C368920D0B403B
:1012C000E1689C46022915D10621D3090F400B4045
:1012D0009F420ED1A16C491CA164A16C0229E2D1EC
:1012E000A6640821C1612E7000992046FFF704FA18
:1012F000F8BD674604212046FFF754FF2E703A469A
:10130000F2E782698069D203D70F000C0840009091
:1013100007212046FFF746FF21681020C8612E7084
:101320002046FFF7C9FA3946009ADEE7F8B50026ED
:10133000054640350446AE702C48E0626685606C18
:101340000843606468782027282823D068782928F3
:1013500020D068782A281DD007212046FFF722FFD9
:101360006878602800D06F70266366632068016823
:101370004A041F49026817D501239B039A43026060
:10138000A06B41632E70A06BFEF7D4FF00281DD028
:10139000A06B19E003212046FFF704FF28206870A6
:1013A000266314486063E1E7120410D50268012344
:1013B000DB039A430260E06B41632E70E06BFEF743
:1013C000B9FF002802D0E06B416B8847F8BD687810
:1013D000602804D02E702046FFF702FAF8BD6F7027
:1013E0002E702046FFF787F9F8BD00000000FFFFD0
:1013F000711100085517000870B504461548E062E1
:1014000000252563204640300646857020207070F8
:101410006563480711D52068416A606A421C6262B0
:101420000170208D002808D0401E2085608D401E50
:101430006085606C04210843606407212046FFF743
:10144000B1FE21681020C86135702046FFF734FADC
:1014500070BD00000000FFFFF8B5064600682027B9
:10146000C76130684268224B1A40426000253563EC
:1014700020487563F062C80606D531681020C8613F
:10148000706C0421084370643046FFF7E9FE0321C5
:101490003046FFF787FE706C002814D13446403484
:1014A000607860280FD06078212811D060782228D9
:1014B00008D16770A078A57040282570304614D0F8
:1014C000FFF718FAF8BD716C3046FFF72FFFF8BD33
:1014D0006770A078A57040282570304602D0FFF7CD
:1014E0000AFAF8BDFFF709FAF8BDFFF705FAF8BDEB
:1014F00000E800FE0000FFFFF8B504460068202663
:101500000F46C66121680820C86107212046FFF701
:1015100049FE20684168B202114341602068416879
:101520002D4A114041602046FFF79AFE206801686D
:10153000254649044035002902DB0168090406D527
:10154000697821292FD0E16B096849686185628D2E
:101550000421002A02D0626C0A4362647A070FD524
:10156000426A606A431C63620270208D002807D0C3
:10157000401E2085608D401E6085606C084360645D
:1015800000202063A8706063616C00290DD0616C3D
:101590002046FFF7CBFE6878282803D1394620463D
:1015A000FFF72AFFF8BDA16BCEE7E26A0B498A423A
:1015B00006D0E1626E7028702046FFF77DF9F8BD15
:1015C00069786E7022292870204602D0FFF7E2F970
:1015D000F8BDFFF7CDF9F8BD00E800FE0000FFFF01
:1015E00070B50026044640340546A6706178282070
:1015F00029290ED061782A290AD160702220286317
:1016000002212846FFF7CEFD26702846FFF7B0F9E5
:1016100070BD60702120286301212846FFF7C2FDBC
:1016200026702846FFF7B6F970BDF8B505460446A2
:1016300040352878012816D001202870C8060026D9
:10164000002812DAD00610D521681020C861606C1D
:1016500004210843606412212046FFF7CFFD204695
:10166000FFF7FEFD3FE00220F8BD080634D5500626
:1016700032D520680168402291430160608D0028C6
:1016800025D0206840688105608D890DFF2803D929
:10169000FF202085930403E0608D012320855B06F5
:1016A0000096208DC2B2204600F0E4F8608D218DB6
:1016B000401A6085687822282068016804D00122D9
:1016C0009203114301600EE00122D203F9E74021A9
:1016D0002046FFF72BFE06E0880604D5900602D5CB
:1016E0002046FFF7B9FE2E700020F8BD10B5044665
:1016F00040342378012B15D001232370CB0618D555
:10170000D30616D5617821290ED0C16B09684968C6
:10171000102200290AD00168CA61416C04221143D9
:10172000416414E0022010BD816BEFE70068C261E4
:101730000DE00B0705D5130703D500680821C1612B
:1017400005E08B0603D5920601D5FFF7D5FE0020F4
:10175000207010BDF8B50546044640352878164679
:101760000F46012811D0012028704149F8062DD5D7
:10177000F0062BD5628D1020002A08D02168C861A0
:10178000606C04210843606467E00220F8BDE36AEE
:1017900001225206934202D0E36A934202D16A7850
:1017A000282A08D0E26A8A4202D06978292907D01B
:1017B0002168C86151E039462046FFF71DFE4CE024
:1017C0002168C8612046FFF74BFD43E0780719D533
:1017D000700717D5608D002820680BD0426A606AB8
:1017E000431C63620270208D401E2085608D401E68
:1017F000608500E0406A608D00282ED1E06A884252
:1018000028D12AE0380706D5300704D539462046C6
:10181000FFF737FD21E0B8071FD5B0071DD5608D54
:1018200000280CD0606A411C6162216800788862DF
:10183000608D401E6085208D401E20850DE0216852
:10184000FF208862E06A01210906884202D0E06A2E
:10185000002802D12046FFF7C3FEB80605D5B00622
:1018600003D539462046FFF747FE00202870F8BD13
:101870000000FFFF70B50568049C68688905890D44
:101880001204044E1143194330402143014369605F
:1018900070BD0000009800FC70B5154C0025257047
:1018A000657026460C36E800811989883058FEF7A5
:1018B000C7FEC007C00F2178A840084320706D1CE8
:1018C000EDB2042DEFD30A4E00252C36E800811925
:1018D00089883058FEF7B4FEC007C00F6178A84071
:1018E000084360706D1CEDB2032DEFD370BD000096
:1018F00018000020F0B587B014216846FEF760FCA0
:1019000029484269012189050A43426142690A4026
:101910000592426949110A43426142690A400592AF
:10192000426949000A43426140690022084005902B
:1019300009205021C006FEF788FE002202211B4824
:10194000FEF783FE002202211948FEF77EFE50209A
:101950000124002503266A4671C209206946C00693
:10196000FEF7CAFD022701AA009770C26946104817
:10197000FEF7C2FD01AA009770C269460B48FEF748
:10198000BBFDAF2000900920694601950294C00676
:10199000FEF7B2FD00946946044801950294FEF7F3
:1019A000ABFD07B0F0BD000000100240001400487D
:1019B000000400487047704770B505460024400792
:1019C0000C49400FC8700E464436E80705D0E000C9
:1019D000811989883058012204E0E0008119898842
:1019E00030580022FEF731FE641C6D08E4B2032C6F
:1019F000EBD370BD18000020704710B5FFF734F826
:101A000010BD30B595B030216846FEF7D9FB0024F3
:101A10000F94122000900D940120129403900590D1
:101A200010200E9410941394049006900520C00486
:101A30000C9402250A901194089509940B94684619
:101A4000FFF7A8F907200C900E9401210D950F9433
:101A50000CA8FFF7DBF820201090139410A8FFF7D4
:101A600061F815B030BD0000134801680122114330
:101A700001604168114A114041600168104A1140FB
:101A800001600168012292049143016041683F2294
:101A9000120491434160C16A09090901C162016BE5
:101AA000FF22143291430163416B490849004163AD
:101AB0000021816070470000001002400CB8FF0850
:101AC000FFFFF6FEF8B5040C8BB2264682B25E43E9
:101AD0000D0C1046370C584336048019002179410B
:101AE00016466E43370C36048019794126466E43FC
:101AF0008919F8BD8307FF22DB0E9A408907090E7A
:101B00009940002808DB830809489B001B181868C7
:101B100090430843186070470007000F0838830897
:101B200004489B001B18D86990430843D86170474C
:101B300000E400E000ED00E002E008C8121F08C168
:101B4000002AFAD170477047002001E001C1121F3E
:101B5000002AFBD1704700000548064A01889142DF
:101B600001D00020704740880028FBD0012070473A
:101B7000003C000855AA00000448054A018891422B
:101B800001D000207047408870470000003C0008EA
:101B900055AA00007047000010B5012915D013D9CF
:101BA0000278012A28D0052A30D0FF2A0CD1022938
:101BB0000AD14078002807D0802805D2184908703B
:101BC00000F05EF800F09EF810BD007800280DD0FF
:101BD00001280DD0042815D0052815D0FF281BD0CA
:101BE000FE28F1D10E480121401C02E00D4800E022
:101BF0000D4800F01FF810BD0229FCD14078FEF717
:101C00000DFB10BD0948F4E70948F2E70229F8D1B5
:101C10004078FFF7D1FE10BD01210148E9E700003F
:101C200000000020180000201A00002019000020E9
:101C30001B00002010B5084A322902D932215180F8
:101C400002E05180002906D0002804D00A4601464F
:101C50000248FEF79CFA10BD14000020120100207B
:101C600010B50121054800F02DF8002804D10349E2
:101C70002720087000F004F810BD000000000020CC
:101C800010B50121014800F063F810BD00000020EC
:101C9000C00700D001207047FEF7EEFEFFF7B1FE4F
:101CA000FFF728FEFFF7DCFF00F02CF80448FEF7F2
:101CB00083FD0520FEF762FBFFF7EEFDF9E700006C
:101CC0007400002030B50B460446FFF745FF00289E
:101CD00013D0FFF751FF02460020094903E04518E1
:101CE0002D792554401C9A4201D2154600E01D462C
:101CF0008542F4DC9A4201D2104630BD184630BD10
:101D0000003C000810B50F480D4901600E494160C4
:101D10000E490978490081600121C16000210161FB
:101D200041618161C1610162FEF76CFD00210548DE
:101D3000FEF798FC00210348FEF7B9FC10BD000037
:101D400000540040740000200E0900200000002014
:101D5000F0B506460C46081D0121890285B088426F
:101D600002D9002005B0F0BDFEF7B2FB0020012132
:101D7000244D0190039100900295694601A8FEF759
:101D80000FFB214A002329460120FEF763FB224670
:101D90000023A91C0120FEF75DFB002567080DE06C
:101DA00068008219517813780A0216491A43091DEE
:101DB000411800230120FEF74DFB6D1CAF42EFDC04
:101DC0002046FFF765FF002809D030192038C27F70
:101DD0000C480023C01C21180120FEF73BFB00200B
:101DE000084908E042181279335C9A4202D0FEF7A3
:101DF00027FBB6E7401CA042F4DBFEF721FB0120E5
:101E0000B0E70000003C000855AA000000000000F8
:101E10000000000001020304060708093C1E000838
:101E20000000002074000000381B0008B01E0008ED
:101E300074000020D4040000481B000800020000C9
:101E400001000000040000000000000000127A0001
:101E5000000000000000000000000048100000002A
:101E600000000048010000000000004802000000DF
:101E700000000048040000000000004808000000C6
:101E8000001400480100000000000048800000002D
:101E9000000000482000000000140048020000007C
:101EA000000400480200000000000048400000005C
:04000005080000B13E
:00000001FF
